{
  "contractName": "Marketplace",
  "abi": [
    {
      "inputs": [],
      "stateMutability": "nonpayable",
      "type": "constructor"
    },
    {
      "anonymous": false,
      "inputs": [
        {
          "indexed": true,
          "internalType": "address",
          "name": "owner",
          "type": "address"
        },
        {
          "indexed": true,
          "internalType": "address",
          "name": "approved",
          "type": "address"
        },
        {
          "indexed": true,
          "internalType": "uint256",
          "name": "tokenId",
          "type": "uint256"
        }
      ],
      "name": "Approval",
      "type": "event"
    },
    {
      "anonymous": false,
      "inputs": [
        {
          "indexed": true,
          "internalType": "address",
          "name": "owner",
          "type": "address"
        },
        {
          "indexed": true,
          "internalType": "address",
          "name": "operator",
          "type": "address"
        },
        {
          "indexed": false,
          "internalType": "bool",
          "name": "approved",
          "type": "bool"
        }
      ],
      "name": "ApprovalForAll",
      "type": "event"
    },
    {
      "anonymous": false,
      "inputs": [
        {
          "indexed": true,
          "internalType": "address",
          "name": "from",
          "type": "address"
        },
        {
          "indexed": true,
          "internalType": "address",
          "name": "to",
          "type": "address"
        },
        {
          "indexed": true,
          "internalType": "uint256",
          "name": "tokenId",
          "type": "uint256"
        }
      ],
      "name": "Transfer",
      "type": "event"
    },
    {
      "inputs": [],
      "name": "NFTCounter",
      "outputs": [
        {
          "internalType": "uint256",
          "name": "",
          "type": "uint256"
        }
      ],
      "stateMutability": "view",
      "type": "function",
      "constant": true
    },
    {
      "inputs": [],
      "name": "UserCounter",
      "outputs": [
        {
          "internalType": "uint256",
          "name": "",
          "type": "uint256"
        }
      ],
      "stateMutability": "view",
      "type": "function",
      "constant": true
    },
    {
      "inputs": [
        {
          "internalType": "uint256",
          "name": "",
          "type": "uint256"
        }
      ],
      "name": "allAddress",
      "outputs": [
        {
          "internalType": "address",
          "name": "",
          "type": "address"
        }
      ],
      "stateMutability": "view",
      "type": "function",
      "constant": true
    },
    {
      "inputs": [
        {
          "internalType": "uint256",
          "name": "",
          "type": "uint256"
        }
      ],
      "name": "allNFTs",
      "outputs": [
        {
          "internalType": "uint256",
          "name": "tokenId",
          "type": "uint256"
        },
        {
          "internalType": "string",
          "name": "tokenName",
          "type": "string"
        },
        {
          "internalType": "string",
          "name": "tokenImage",
          "type": "string"
        },
        {
          "internalType": "string",
          "name": "tokenURI",
          "type": "string"
        },
        {
          "internalType": "address payable",
          "name": "mintedBy",
          "type": "address"
        },
        {
          "internalType": "address payable",
          "name": "currentOwner",
          "type": "address"
        },
        {
          "internalType": "address payable",
          "name": "previousOwner",
          "type": "address"
        },
        {
          "internalType": "uint256",
          "name": "price",
          "type": "uint256"
        },
        {
          "internalType": "uint256",
          "name": "numberOfTransfers",
          "type": "uint256"
        },
        {
          "internalType": "bool",
          "name": "forSale",
          "type": "bool"
        },
        {
          "internalType": "string",
          "name": "mintTime",
          "type": "string"
        }
      ],
      "stateMutability": "view",
      "type": "function",
      "constant": true
    },
    {
      "inputs": [
        {
          "internalType": "address",
          "name": "",
          "type": "address"
        }
      ],
      "name": "allProfiles",
      "outputs": [
        {
          "internalType": "string",
          "name": "bannerHash",
          "type": "string"
        },
        {
          "internalType": "string",
          "name": "imageHash",
          "type": "string"
        },
        {
          "internalType": "string",
          "name": "name",
          "type": "string"
        },
        {
          "internalType": "string",
          "name": "description",
          "type": "string"
        },
        {
          "internalType": "address",
          "name": "user",
          "type": "address"
        },
        {
          "internalType": "string",
          "name": "email",
          "type": "string"
        },
        {
          "internalType": "string",
          "name": "timeOfRegistry",
          "type": "string"
        }
      ],
      "stateMutability": "view",
      "type": "function",
      "constant": true
    },
    {
      "inputs": [
        {
          "internalType": "address",
          "name": "to",
          "type": "address"
        },
        {
          "internalType": "uint256",
          "name": "tokenId",
          "type": "uint256"
        }
      ],
      "name": "approve",
      "outputs": [],
      "stateMutability": "nonpayable",
      "type": "function"
    },
    {
      "inputs": [
        {
          "internalType": "address",
          "name": "owner",
          "type": "address"
        }
      ],
      "name": "balanceOf",
      "outputs": [
        {
          "internalType": "uint256",
          "name": "",
          "type": "uint256"
        }
      ],
      "stateMutability": "view",
      "type": "function",
      "constant": true
    },
    {
      "inputs": [],
      "name": "baseURI",
      "outputs": [
        {
          "internalType": "string",
          "name": "",
          "type": "string"
        }
      ],
      "stateMutability": "view",
      "type": "function",
      "constant": true
    },
    {
      "inputs": [],
      "name": "collectionName",
      "outputs": [
        {
          "internalType": "string",
          "name": "",
          "type": "string"
        }
      ],
      "stateMutability": "view",
      "type": "function",
      "constant": true
    },
    {
      "inputs": [],
      "name": "collectionNameSymbol",
      "outputs": [
        {
          "internalType": "string",
          "name": "",
          "type": "string"
        }
      ],
      "stateMutability": "view",
      "type": "function",
      "constant": true
    },
    {
      "inputs": [
        {
          "internalType": "uint256",
          "name": "tokenId",
          "type": "uint256"
        }
      ],
      "name": "getApproved",
      "outputs": [
        {
          "internalType": "address",
          "name": "",
          "type": "address"
        }
      ],
      "stateMutability": "view",
      "type": "function",
      "constant": true
    },
    {
      "inputs": [
        {
          "internalType": "address",
          "name": "owner",
          "type": "address"
        },
        {
          "internalType": "address",
          "name": "operator",
          "type": "address"
        }
      ],
      "name": "isApprovedForAll",
      "outputs": [
        {
          "internalType": "bool",
          "name": "",
          "type": "bool"
        }
      ],
      "stateMutability": "view",
      "type": "function",
      "constant": true
    },
    {
      "inputs": [
        {
          "internalType": "address",
          "name": "",
          "type": "address"
        }
      ],
      "name": "isProfileSet",
      "outputs": [
        {
          "internalType": "bool",
          "name": "",
          "type": "bool"
        }
      ],
      "stateMutability": "view",
      "type": "function",
      "constant": true
    },
    {
      "inputs": [],
      "name": "name",
      "outputs": [
        {
          "internalType": "string",
          "name": "",
          "type": "string"
        }
      ],
      "stateMutability": "view",
      "type": "function",
      "constant": true
    },
    {
      "inputs": [
        {
          "internalType": "uint256",
          "name": "tokenId",
          "type": "uint256"
        }
      ],
      "name": "ownerOf",
      "outputs": [
        {
          "internalType": "address",
          "name": "",
          "type": "address"
        }
      ],
      "stateMutability": "view",
      "type": "function",
      "constant": true
    },
    {
      "inputs": [
        {
          "internalType": "address",
          "name": "from",
          "type": "address"
        },
        {
          "internalType": "address",
          "name": "to",
          "type": "address"
        },
        {
          "internalType": "uint256",
          "name": "tokenId",
          "type": "uint256"
        }
      ],
      "name": "safeTransferFrom",
      "outputs": [],
      "stateMutability": "nonpayable",
      "type": "function"
    },
    {
      "inputs": [
        {
          "internalType": "address",
          "name": "from",
          "type": "address"
        },
        {
          "internalType": "address",
          "name": "to",
          "type": "address"
        },
        {
          "internalType": "uint256",
          "name": "tokenId",
          "type": "uint256"
        },
        {
          "internalType": "bytes",
          "name": "_data",
          "type": "bytes"
        }
      ],
      "name": "safeTransferFrom",
      "outputs": [],
      "stateMutability": "nonpayable",
      "type": "function"
    },
    {
      "inputs": [
        {
          "internalType": "address",
          "name": "operator",
          "type": "address"
        },
        {
          "internalType": "bool",
          "name": "approved",
          "type": "bool"
        }
      ],
      "name": "setApprovalForAll",
      "outputs": [],
      "stateMutability": "nonpayable",
      "type": "function"
    },
    {
      "inputs": [
        {
          "internalType": "bytes4",
          "name": "interfaceId",
          "type": "bytes4"
        }
      ],
      "name": "supportsInterface",
      "outputs": [
        {
          "internalType": "bool",
          "name": "",
          "type": "bool"
        }
      ],
      "stateMutability": "view",
      "type": "function",
      "constant": true
    },
    {
      "inputs": [],
      "name": "symbol",
      "outputs": [
        {
          "internalType": "string",
          "name": "",
          "type": "string"
        }
      ],
      "stateMutability": "view",
      "type": "function",
      "constant": true
    },
    {
      "inputs": [
        {
          "internalType": "uint256",
          "name": "index",
          "type": "uint256"
        }
      ],
      "name": "tokenByIndex",
      "outputs": [
        {
          "internalType": "uint256",
          "name": "",
          "type": "uint256"
        }
      ],
      "stateMutability": "view",
      "type": "function",
      "constant": true
    },
    {
      "inputs": [
        {
          "internalType": "string",
          "name": "",
          "type": "string"
        }
      ],
      "name": "tokenImageExists",
      "outputs": [
        {
          "internalType": "bool",
          "name": "",
          "type": "bool"
        }
      ],
      "stateMutability": "view",
      "type": "function",
      "constant": true
    },
    {
      "inputs": [
        {
          "internalType": "string",
          "name": "",
          "type": "string"
        }
      ],
      "name": "tokenNameExists",
      "outputs": [
        {
          "internalType": "bool",
          "name": "",
          "type": "bool"
        }
      ],
      "stateMutability": "view",
      "type": "function",
      "constant": true
    },
    {
      "inputs": [
        {
          "internalType": "address",
          "name": "owner",
          "type": "address"
        },
        {
          "internalType": "uint256",
          "name": "index",
          "type": "uint256"
        }
      ],
      "name": "tokenOfOwnerByIndex",
      "outputs": [
        {
          "internalType": "uint256",
          "name": "",
          "type": "uint256"
        }
      ],
      "stateMutability": "view",
      "type": "function",
      "constant": true
    },
    {
      "inputs": [
        {
          "internalType": "uint256",
          "name": "tokenId",
          "type": "uint256"
        }
      ],
      "name": "tokenURI",
      "outputs": [
        {
          "internalType": "string",
          "name": "",
          "type": "string"
        }
      ],
      "stateMutability": "view",
      "type": "function",
      "constant": true
    },
    {
      "inputs": [],
      "name": "totalSupply",
      "outputs": [
        {
          "internalType": "uint256",
          "name": "",
          "type": "uint256"
        }
      ],
      "stateMutability": "view",
      "type": "function",
      "constant": true
    },
    {
      "inputs": [
        {
          "internalType": "address",
          "name": "from",
          "type": "address"
        },
        {
          "internalType": "address",
          "name": "to",
          "type": "address"
        },
        {
          "internalType": "uint256",
          "name": "tokenId",
          "type": "uint256"
        }
      ],
      "name": "transferFrom",
      "outputs": [],
      "stateMutability": "nonpayable",
      "type": "function"
    },
    {
      "inputs": [
        {
          "internalType": "string",
          "name": "_name",
          "type": "string"
        },
        {
          "internalType": "string",
          "name": "_tokenURI",
          "type": "string"
        },
        {
          "internalType": "uint256",
          "name": "_price",
          "type": "uint256"
        },
        {
          "internalType": "string",
          "name": "_imageHash",
          "type": "string"
        },
        {
          "internalType": "string",
          "name": "_mintTime",
          "type": "string"
        }
      ],
      "name": "mintNFT",
      "outputs": [],
      "stateMutability": "nonpayable",
      "type": "function"
    },
    {
      "inputs": [
        {
          "internalType": "uint256",
          "name": "_tokenId",
          "type": "uint256"
        }
      ],
      "name": "getTokenOwner",
      "outputs": [
        {
          "internalType": "address",
          "name": "",
          "type": "address"
        }
      ],
      "stateMutability": "view",
      "type": "function",
      "constant": true
    },
    {
      "inputs": [
        {
          "internalType": "uint256",
          "name": "_tokenId",
          "type": "uint256"
        }
      ],
      "name": "getTokenMetaData",
      "outputs": [
        {
          "internalType": "string",
          "name": "",
          "type": "string"
        }
      ],
      "stateMutability": "view",
      "type": "function",
      "constant": true
    },
    {
      "inputs": [],
      "name": "getNumberOfTokensMinted",
      "outputs": [
        {
          "internalType": "uint256",
          "name": "",
          "type": "uint256"
        }
      ],
      "stateMutability": "view",
      "type": "function",
      "constant": true
    },
    {
      "inputs": [
        {
          "internalType": "uint256",
          "name": "_tokenId",
          "type": "uint256"
        }
      ],
      "name": "buyToken",
      "outputs": [],
      "stateMutability": "payable",
      "type": "function",
      "payable": true
    },
    {
      "inputs": [
        {
          "internalType": "uint256",
          "name": "_tokenId",
          "type": "uint256"
        },
        {
          "internalType": "uint256",
          "name": "_newPrice",
          "type": "uint256"
        }
      ],
      "name": "changeTokenPrice",
      "outputs": [],
      "stateMutability": "nonpayable",
      "type": "function"
    },
    {
      "inputs": [
        {
          "internalType": "uint256",
          "name": "_tokenId",
          "type": "uint256"
        }
      ],
      "name": "toggleForSale",
      "outputs": [],
      "stateMutability": "nonpayable",
      "type": "function"
    },
    {
      "inputs": [
        {
          "internalType": "string",
          "name": "_bannerHash",
          "type": "string"
        },
        {
          "internalType": "string",
          "name": "_imageHash",
          "type": "string"
        },
        {
          "internalType": "string",
          "name": "_name",
          "type": "string"
        },
        {
          "internalType": "string",
          "name": "_bio",
          "type": "string"
        },
        {
          "internalType": "address",
          "name": "_user",
          "type": "address"
        },
        {
          "internalType": "string",
          "name": "_email",
          "type": "string"
        },
        {
          "internalType": "string",
          "name": "_timestamp",
          "type": "string"
        }
      ],
      "name": "addUserProfile",
      "outputs": [],
      "stateMutability": "nonpayable",
      "type": "function"
    }
  ],
  "bytecode": "0x60806040523480156200001157600080fd5b506040518060400160405280600e81526020017f4e465420436f6c6c656374696f6e0000000000000000000000000000000000008152506040518060400160405280600381526020017f4e46540000000000000000000000000000000000000000000000000000000000815250620000966301ffc9a760e01b6200016860201b60201c565b8160069080519060200190620000ae929190620003bd565b508060079080519060200190620000c7929190620003bd565b50620000e06380ac58cd60e01b6200016860201b60201c565b620000f8635b5e139f60e01b6200016860201b60201c565b6200011063780e9d6360e01b6200016860201b60201c565b5050620001226200027160201b60201c565b600a908051906020019062000139929190620003bd565b506200014a6200031760201b60201c565b600b908051906020019062000161929190620003bd565b5062000473565b63ffffffff60e01b817bffffffffffffffffffffffffffffffffffffffffffffffffffffffff1916141562000205576040517f08c379a000000000000000000000000000000000000000000000000000000000815260040180806020018281038252601c8152602001807f4552433136353a20696e76616c696420696e746572666163652069640000000081525060200191505060405180910390fd5b6001600080837bffffffffffffffffffffffffffffffffffffffffffffffffffffffff19167bffffffffffffffffffffffffffffffffffffffffffffffffffffffff1916815260200190815260200160002060006101000a81548160ff02191690831515021790555050565b606060068054600181600116156101000203166002900480601f0160208091040260200160405190810160405280929190818152602001828054600181600116156101000203166002900480156200030d5780601f10620002e1576101008083540402835291602001916200030d565b820191906000526020600020905b815481529060010190602001808311620002ef57829003601f168201915b5050505050905090565b606060078054600181600116156101000203166002900480601f016020809104026020016040519081016040528092919081815260200182805460018160011615610100020316600290048015620003b35780601f106200038757610100808354040283529160200191620003b3565b820191906000526020600020905b8154815290600101906020018083116200039557829003601f168201915b5050505050905090565b828054600181600116156101000203166002900490600052602060002090601f016020900481019282620003f5576000855562000441565b82601f106200041057805160ff191683800117855562000441565b8280016001018555821562000441579182015b828111156200044057825182559160200191906001019062000423565b5b50905062000450919062000454565b5090565b5b808211156200046f57600081600090555060010162000455565b5090565b615d3a80620004836000396000f3fe6080604052600436106102045760003560e01c806362e8e8ac11610118578063a46b1fac116100a0578063bf162d671161006f578063bf162d67146107e2578063c87b56dd14610829578063cc151f3a14610866578063e5326ab114610891578063e985e9c5146108bc57610204565b8063a46b1fac14610702578063a5cd761f1461073f578063a8cef27a1461077c578063b88d4fde146107b957610204565b80636f9507f9116100e75780636f9507f91461061d57806370a082311461064857806395d89b4114610685578063a22cb465146106b0578063a32018b9146106d957610204565b806362e8e8ac1461054f5780636352211e1461057857806367c623cf146105b55780636c0360eb146105f257610204565b8063185756ae1161019b5780633fe1f1401161016a5780633fe1f1401461046a57806342842e0e14610493578063483f8602146104bc5780634f6ccce7146104e75780635508d8e11461052457610204565b8063185756ae146103ab57806323b872dd146103e85780632d296bf1146104115780632f745c591461042d57610204565b8063095ea7b3116101d7578063095ea7b3146102f157806316f0c4161461031a57806317f445f11461034357806318160ddd1461038057610204565b806301ffc9a71461020957806302959a201461024657806306fdde0314610289578063081812fc146102b4575b600080fd5b34801561021557600080fd5b50610230600480360381019061022b9190615338565b6108f9565b60405161023d91906156e4565b60405180910390f35b34801561025257600080fd5b5061026d60048036038101906102689190615191565b610960565b6040516102809796959493929190615721565b60405180910390f35b34801561029557600080fd5b5061029e610d52565b6040516102ab91906156ff565b60405180910390f35b3480156102c057600080fd5b506102db60048036038101906102d691906155a7565b610df4565b6040516102e891906156c9565b60405180910390f35b3480156102fd57600080fd5b50610318600480360381019061031391906152fc565b610e8f565b005b34801561032657600080fd5b50610341600480360381019061033c91906154d0565b610fd3565b005b34801561034f57600080fd5b5061036a60048036038101906103659190615361565b611330565b60405161037791906156e4565b60405180910390f35b34801561038c57600080fd5b50610395611366565b6040516103a291906157ba565b60405180910390f35b3480156103b757600080fd5b506103d260048036038101906103cd9190615191565b611377565b6040516103df91906156e4565b60405180910390f35b3480156103f457600080fd5b5061040f600480360381019061040a91906151f6565b611397565b005b61042b600480360381019061042691906155a7565b61140d565b005b34801561043957600080fd5b50610454600480360381019061044f91906152fc565b611b79565b60405161046191906157ba565b60405180910390f35b34801561047657600080fd5b50610491600480360381019061048c91906153a2565b611bd4565b005b34801561049f57600080fd5b506104ba60048036038101906104b591906151f6565b61233e565b005b3480156104c857600080fd5b506104d161235e565b6040516104de91906157ba565b60405180910390f35b3480156104f357600080fd5b5061050e600480360381019061050991906155a7565b612364565b60405161051b91906157ba565b60405180910390f35b34801561053057600080fd5b50610539612387565b60405161054691906157ba565b60405180910390f35b34801561055b57600080fd5b50610576600480360381019061057191906155d0565b61238d565b005b34801561058457600080fd5b5061059f600480360381019061059a91906155a7565b6129b5565b6040516105ac91906156c9565b60405180910390f35b3480156105c157600080fd5b506105dc60048036038101906105d791906155a7565b6129ec565b6040516105e991906156ff565b60405180910390f35b3480156105fe57600080fd5b50610607612a04565b60405161061491906156ff565b60405180910390f35b34801561062957600080fd5b50610632612aa6565b60405161063f91906156ff565b60405180910390f35b34801561065457600080fd5b5061066f600480360381019061066a9190615191565b612b44565b60405161067c91906157ba565b60405180910390f35b34801561069157600080fd5b5061069a612c19565b6040516106a791906156ff565b60405180910390f35b3480156106bc57600080fd5b506106d760048036038101906106d291906152c0565b612cbb565b005b3480156106e557600080fd5b5061070060048036038101906106fb91906155a7565b612e71565b005b34801561070e57600080fd5b5061072960048036038101906107249190615361565b6134c3565b60405161073691906156e4565b60405180910390f35b34801561074b57600080fd5b50610766600480360381019061076191906155a7565b6134f9565b60405161077391906156c9565b60405180910390f35b34801561078857600080fd5b506107a3600480360381019061079e91906155a7565b613510565b6040516107b091906156c9565b60405180910390f35b3480156107c557600080fd5b506107e060048036038101906107db9190615245565b613543565b005b3480156107ee57600080fd5b50610809600480360381019061080491906155a7565b6135bb565b6040516108209b9a999897969594939291906157d5565b60405180910390f35b34801561083557600080fd5b50610850600480360381019061084b91906155a7565b6138e2565b60405161085d91906156ff565b60405180910390f35b34801561087257600080fd5b5061087b613bb3565b60405161088891906157ba565b60405180910390f35b34801561089d57600080fd5b506108a6613bc7565b6040516108b391906156ff565b60405180910390f35b3480156108c857600080fd5b506108e360048036038101906108de91906151ba565b613c65565b6040516108f091906156e4565b60405180910390f35b6000806000837bffffffffffffffffffffffffffffffffffffffffffffffffffffffff19167bffffffffffffffffffffffffffffffffffffffffffffffffffffffff1916815260200190815260200160002060009054906101000a900460ff169050919050565b600e602052806000526040600020600091509050806000018054600181600116156101000203166002900480601f016020809104026020016040519081016040528092919081815260200182805460018160011615610100020316600290048015610a0c5780601f106109e157610100808354040283529160200191610a0c565b820191906000526020600020905b8154815290600101906020018083116109ef57829003601f168201915b505050505090806001018054600181600116156101000203166002900480601f016020809104026020016040519081016040528092919081815260200182805460018160011615610100020316600290048015610aaa5780601f10610a7f57610100808354040283529160200191610aaa565b820191906000526020600020905b815481529060010190602001808311610a8d57829003601f168201915b505050505090806002018054600181600116156101000203166002900480601f016020809104026020016040519081016040528092919081815260200182805460018160011615610100020316600290048015610b485780601f10610b1d57610100808354040283529160200191610b48565b820191906000526020600020905b815481529060010190602001808311610b2b57829003601f168201915b505050505090806003018054600181600116156101000203166002900480601f016020809104026020016040519081016040528092919081815260200182805460018160011615610100020316600290048015610be65780601f10610bbb57610100808354040283529160200191610be6565b820191906000526020600020905b815481529060010190602001808311610bc957829003601f168201915b5050505050908060040160009054906101000a900473ffffffffffffffffffffffffffffffffffffffff1690806005018054600181600116156101000203166002900480601f016020809104026020016040519081016040528092919081815260200182805460018160011615610100020316600290048015610caa5780601f10610c7f57610100808354040283529160200191610caa565b820191906000526020600020905b815481529060010190602001808311610c8d57829003601f168201915b505050505090806006018054600181600116156101000203166002900480601f016020809104026020016040519081016040528092919081815260200182805460018160011615610100020316600290048015610d485780601f10610d1d57610100808354040283529160200191610d48565b820191906000526020600020905b815481529060010190602001808311610d2b57829003601f168201915b5050505050905087565b606060068054600181600116156101000203166002900480601f016020809104026020016040519081016040528092919081815260200182805460018160011615610100020316600290048015610dea5780601f10610dbf57610100808354040283529160200191610dea565b820191906000526020600020905b815481529060010190602001808311610dcd57829003601f168201915b5050505050905090565b6000610dff82613cf9565b610e54576040517f08c379a000000000000000000000000000000000000000000000000000000000815260040180806020018281038252602c815260200180615c03602c913960400191505060405180910390fd5b6004600083815260200190815260200160002060009054906101000a900473ffffffffffffffffffffffffffffffffffffffff169050919050565b6000610e9a826129b5565b90508073ffffffffffffffffffffffffffffffffffffffff168373ffffffffffffffffffffffffffffffffffffffff161415610f21576040517f08c379a0000000000000000000000000000000000000000000000000000000008152600401808060200182810382526021815260200180615cb36021913960400191505060405180910390fd5b8073ffffffffffffffffffffffffffffffffffffffff16610f40613d16565b73ffffffffffffffffffffffffffffffffffffffff161480610f6f5750610f6e81610f69613d16565b613c65565b5b610fc4576040517f08c379a0000000000000000000000000000000000000000000000000000000008152600401808060200182810382526038815260200180615b566038913960400191505060405180910390fd5b610fce8383613d1e565b505050565b600c60008154809291906001019190505550610ff0600c54613cf9565b15610ffa57600080fd5b60128560405161100a91906156b2565b908152602001604051809103902060009054906101000a900460ff161561103057600080fd5b60138260405161104091906156b2565b908152602001604051809103902060009054906101000a900460ff161561106657600080fd5b61107233600c54613dd7565b61107e600c5485613fcb565b600160138360405161109091906156b2565b908152602001604051809103902060006101000a81548160ff02191690831515021790555060016012866040516110c791906156b2565b908152602001604051809103902060006101000a81548160ff0219169083151502179055506000604051806101600160405280600c5481526020018781526020018481526020018681526020013373ffffffffffffffffffffffffffffffffffffffff1681526020013373ffffffffffffffffffffffffffffffffffffffff168152602001600073ffffffffffffffffffffffffffffffffffffffff168152602001858152602001600081526020016000151581526020018381525090508060116000600c5481526020019081526020016000206000820151816000015560208201518160010190805190602001906111c1929190614fc2565b5060408201518160020190805190602001906111de929190614fc2565b5060608201518160030190805190602001906111fb929190614fc2565b5060808201518160040160006101000a81548173ffffffffffffffffffffffffffffffffffffffff021916908373ffffffffffffffffffffffffffffffffffffffff16021790555060a08201518160050160006101000a81548173ffffffffffffffffffffffffffffffffffffffff021916908373ffffffffffffffffffffffffffffffffffffffff16021790555060c08201518160060160006101000a81548173ffffffffffffffffffffffffffffffffffffffff021916908373ffffffffffffffffffffffffffffffffffffffff16021790555060e0820151816007015561010082015181600801556101208201518160090160006101000a81548160ff02191690831515021790555061014082015181600a019080519060200190611324929190614fc2565b50905050505050505050565b6013818051602081018201805184825260208301602085012081835280955050505050506000915054906101000a900460ff1681565b60006113726002614055565b905090565b60106020528060005260406000206000915054906101000a900460ff1681565b6113a86113a2613d16565b8261406a565b6113fd576040517f08c379a0000000000000000000000000000000000000000000000000000000008152600401808060200182810382526031815260200180615cd46031913960400191505060405180910390fd5b61140883838361415e565b505050565b600073ffffffffffffffffffffffffffffffffffffffff163373ffffffffffffffffffffffffffffffffffffffff16141561144757600080fd5b61145081613cf9565b61145957600080fd5b6000611464826129b5565b9050600073ffffffffffffffffffffffffffffffffffffffff168173ffffffffffffffffffffffffffffffffffffffff1614156114a057600080fd5b3373ffffffffffffffffffffffffffffffffffffffff168173ffffffffffffffffffffffffffffffffffffffff1614156114d957600080fd5b6000601160008481526020019081526020016000206040518061016001604052908160008201548152602001600182018054600181600116156101000203166002900480601f01602080910402602001604051908101604052809291908181526020018280546001816001161561010002031660029004801561159d5780601f106115725761010080835404028352916020019161159d565b820191906000526020600020905b81548152906001019060200180831161158057829003601f168201915b50505050508152602001600282018054600181600116156101000203166002900480601f01602080910402602001604051908101604052809291908181526020018280546001816001161561010002031660029004801561163f5780601f106116145761010080835404028352916020019161163f565b820191906000526020600020905b81548152906001019060200180831161162257829003601f168201915b50505050508152602001600382018054600181600116156101000203166002900480601f0160208091040260200160405190810160405280929190818152602001828054600181600116156101000203166002900480156116e15780601f106116b6576101008083540402835291602001916116e1565b820191906000526020600020905b8154815290600101906020018083116116c457829003601f168201915b505050505081526020016004820160009054906101000a900473ffffffffffffffffffffffffffffffffffffffff1673ffffffffffffffffffffffffffffffffffffffff1673ffffffffffffffffffffffffffffffffffffffff1681526020016005820160009054906101000a900473ffffffffffffffffffffffffffffffffffffffff1673ffffffffffffffffffffffffffffffffffffffff1673ffffffffffffffffffffffffffffffffffffffff1681526020016006820160009054906101000a900473ffffffffffffffffffffffffffffffffffffffff1673ffffffffffffffffffffffffffffffffffffffff1673ffffffffffffffffffffffffffffffffffffffff16815260200160078201548152602001600882015481526020016009820160009054906101000a900460ff16151515158152602001600a82018054600181600116156101000203166002900480601f0160208091040260200160405190810160405280929190818152602001828054600181600116156101000203166002900480156118b45780601f10611889576101008083540402835291602001916118b4565b820191906000526020600020905b81548152906001019060200180831161189757829003601f168201915b50505050508152505090508060e001513410156118d057600080fd5b8061012001516118df57600080fd5b6118ea82338561415e565b60008160a0015190508073ffffffffffffffffffffffffffffffffffffffff166108fc349081150290604051600060405180830381858888f19350505050158015611939573d6000803e3d6000fd5b508160a001518260c0019073ffffffffffffffffffffffffffffffffffffffff16908173ffffffffffffffffffffffffffffffffffffffff1681525050338260a0019073ffffffffffffffffffffffffffffffffffffffff16908173ffffffffffffffffffffffffffffffffffffffff16815250506001826101000181815101915081815250506000826101200190151590811515815250508160116000868152602001908152602001600020600082015181600001556020820151816001019080519060200190611a0c929190614fc2565b506040820151816002019080519060200190611a29929190614fc2565b506060820151816003019080519060200190611a46929190614fc2565b5060808201518160040160006101000a81548173ffffffffffffffffffffffffffffffffffffffff021916908373ffffffffffffffffffffffffffffffffffffffff16021790555060a08201518160050160006101000a81548173ffffffffffffffffffffffffffffffffffffffff021916908373ffffffffffffffffffffffffffffffffffffffff16021790555060c08201518160060160006101000a81548173ffffffffffffffffffffffffffffffffffffffff021916908373ffffffffffffffffffffffffffffffffffffffff16021790555060e0820151816007015561010082015181600801556101208201518160090160006101000a81548160ff02191690831515021790555061014082015181600a019080519060200190611b6f929190614fc2565b5090505050505050565b6000611bcc82600160008673ffffffffffffffffffffffffffffffffffffffff1673ffffffffffffffffffffffffffffffffffffffff1681526020019081526020016000206143a190919063ffffffff16565b905092915050565b600073ffffffffffffffffffffffffffffffffffffffff163373ffffffffffffffffffffffffffffffffffffffff161415611c0e57600080fd5b600d600081548092919060010191905055506000600e60008573ffffffffffffffffffffffffffffffffffffffff1673ffffffffffffffffffffffffffffffffffffffff1681526020019081526020016000206040518060e0016040529081600082018054600181600116156101000203166002900480601f016020809104026020016040519081016040528092919081815260200182805460018160011615610100020316600290048015611d055780601f10611cda57610100808354040283529160200191611d05565b820191906000526020600020905b815481529060010190602001808311611ce857829003601f168201915b50505050508152602001600182018054600181600116156101000203166002900480601f016020809104026020016040519081016040528092919081815260200182805460018160011615610100020316600290048015611da75780601f10611d7c57610100808354040283529160200191611da7565b820191906000526020600020905b815481529060010190602001808311611d8a57829003601f168201915b50505050508152602001600282018054600181600116156101000203166002900480601f016020809104026020016040519081016040528092919081815260200182805460018160011615610100020316600290048015611e495780601f10611e1e57610100808354040283529160200191611e49565b820191906000526020600020905b815481529060010190602001808311611e2c57829003601f168201915b50505050508152602001600382018054600181600116156101000203166002900480601f016020809104026020016040519081016040528092919081815260200182805460018160011615610100020316600290048015611eeb5780601f10611ec057610100808354040283529160200191611eeb565b820191906000526020600020905b815481529060010190602001808311611ece57829003601f168201915b505050505081526020016004820160009054906101000a900473ffffffffffffffffffffffffffffffffffffffff1673ffffffffffffffffffffffffffffffffffffffff1673ffffffffffffffffffffffffffffffffffffffff168152602001600582018054600181600116156101000203166002900480601f016020809104026020016040519081016040528092919081815260200182805460018160011615610100020316600290048015611fe35780601f10611fb857610100808354040283529160200191611fe3565b820191906000526020600020905b815481529060010190602001808311611fc657829003601f168201915b50505050508152602001600682018054600181600116156101000203166002900480601f0160208091040260200160405190810160405280929190818152602001828054600181600116156101000203166002900480156120855780601f1061205a57610100808354040283529160200191612085565b820191906000526020600020905b81548152906001019060200180831161206857829003601f168201915b5050505050815250509050878160000181905250828160a0018190525086816020018190525085816040018190525084816060018190525083816080019073ffffffffffffffffffffffffffffffffffffffff16908173ffffffffffffffffffffffffffffffffffffffff1681525050601060008573ffffffffffffffffffffffffffffffffffffffff1673ffffffffffffffffffffffffffffffffffffffff16815260200190815260200160002060009054906101000a900460ff166121a457818160c0018190525083600f6000600d54815260200190815260200160002060006101000a81548173ffffffffffffffffffffffffffffffffffffffff021916908373ffffffffffffffffffffffffffffffffffffffff1602179055505b80600e60008673ffffffffffffffffffffffffffffffffffffffff1673ffffffffffffffffffffffffffffffffffffffff1681526020019081526020016000206000820151816000019080519060200190612200929190614fc2565b50602082015181600101908051906020019061221d929190614fc2565b50604082015181600201908051906020019061223a929190614fc2565b506060820151816003019080519060200190612257929190614fc2565b5060808201518160040160006101000a81548173ffffffffffffffffffffffffffffffffffffffff021916908373ffffffffffffffffffffffffffffffffffffffff16021790555060a08201518160050190805190602001906122bb929190614fc2565b5060c08201518160060190805190602001906122d8929190614fc2565b509050506001601060008673ffffffffffffffffffffffffffffffffffffffff1673ffffffffffffffffffffffffffffffffffffffff16815260200190815260200160002060006101000a81548160ff0219169083151502179055505050505050505050565b61235983838360405180602001604052806000815250613543565b505050565b600d5481565b60008061237b8360026143bb90919063ffffffff16565b50905080915050919050565b600c5481565b600073ffffffffffffffffffffffffffffffffffffffff163373ffffffffffffffffffffffffffffffffffffffff1614156123c757600080fd5b6123d082613cf9565b6123d957600080fd5b60006123e4836129b5565b90503373ffffffffffffffffffffffffffffffffffffffff168173ffffffffffffffffffffffffffffffffffffffff161461241e57600080fd5b6000601160008581526020019081526020016000206040518061016001604052908160008201548152602001600182018054600181600116156101000203166002900480601f0160208091040260200160405190810160405280929190818152602001828054600181600116156101000203166002900480156124e25780601f106124b7576101008083540402835291602001916124e2565b820191906000526020600020905b8154815290600101906020018083116124c557829003601f168201915b50505050508152602001600282018054600181600116156101000203166002900480601f0160208091040260200160405190810160405280929190818152602001828054600181600116156101000203166002900480156125845780601f1061255957610100808354040283529160200191612584565b820191906000526020600020905b81548152906001019060200180831161256757829003601f168201915b50505050508152602001600382018054600181600116156101000203166002900480601f0160208091040260200160405190810160405280929190818152602001828054600181600116156101000203166002900480156126265780601f106125fb57610100808354040283529160200191612626565b820191906000526020600020905b81548152906001019060200180831161260957829003601f168201915b505050505081526020016004820160009054906101000a900473ffffffffffffffffffffffffffffffffffffffff1673ffffffffffffffffffffffffffffffffffffffff1673ffffffffffffffffffffffffffffffffffffffff1681526020016005820160009054906101000a900473ffffffffffffffffffffffffffffffffffffffff1673ffffffffffffffffffffffffffffffffffffffff1673ffffffffffffffffffffffffffffffffffffffff1681526020016006820160009054906101000a900473ffffffffffffffffffffffffffffffffffffffff1673ffffffffffffffffffffffffffffffffffffffff1673ffffffffffffffffffffffffffffffffffffffff16815260200160078201548152602001600882015481526020016009820160009054906101000a900460ff16151515158152602001600a82018054600181600116156101000203166002900480601f0160208091040260200160405190810160405280929190818152602001828054600181600116156101000203166002900480156127f95780601f106127ce576101008083540402835291602001916127f9565b820191906000526020600020905b8154815290600101906020018083116127dc57829003601f168201915b5050505050815250509050828160e00181815250508060116000868152602001908152602001600020600082015181600001556020820151816001019080519060200190612848929190614fc2565b506040820151816002019080519060200190612865929190614fc2565b506060820151816003019080519060200190612882929190614fc2565b5060808201518160040160006101000a81548173ffffffffffffffffffffffffffffffffffffffff021916908373ffffffffffffffffffffffffffffffffffffffff16021790555060a08201518160050160006101000a81548173ffffffffffffffffffffffffffffffffffffffff021916908373ffffffffffffffffffffffffffffffffffffffff16021790555060c08201518160060160006101000a81548173ffffffffffffffffffffffffffffffffffffffff021916908373ffffffffffffffffffffffffffffffffffffffff16021790555060e0820151816007015561010082015181600801556101208201518160090160006101000a81548160ff02191690831515021790555061014082015181600a0190805190602001906129ab929190614fc2565b5090505050505050565b60006129e582604051806060016040528060298152602001615bb86029913960026143e79092919063ffffffff16565b9050919050565b606060006129f9836138e2565b905080915050919050565b606060098054600181600116156101000203166002900480601f016020809104026020016040519081016040528092919081815260200182805460018160011615610100020316600290048015612a9c5780601f10612a7157610100808354040283529160200191612a9c565b820191906000526020600020905b815481529060010190602001808311612a7f57829003601f168201915b5050505050905090565b600b8054600181600116156101000203166002900480601f016020809104026020016040519081016040528092919081815260200182805460018160011615610100020316600290048015612b3c5780601f10612b1157610100808354040283529160200191612b3c565b820191906000526020600020905b815481529060010190602001808311612b1f57829003601f168201915b505050505081565b60008073ffffffffffffffffffffffffffffffffffffffff168273ffffffffffffffffffffffffffffffffffffffff161415612bcb576040517f08c379a000000000000000000000000000000000000000000000000000000000815260040180806020018281038252602a815260200180615b8e602a913960400191505060405180910390fd5b612c12600160008473ffffffffffffffffffffffffffffffffffffffff1673ffffffffffffffffffffffffffffffffffffffff168152602001908152602001600020614406565b9050919050565b606060078054600181600116156101000203166002900480601f016020809104026020016040519081016040528092919081815260200182805460018160011615610100020316600290048015612cb15780601f10612c8657610100808354040283529160200191612cb1565b820191906000526020600020905b815481529060010190602001808311612c9457829003601f168201915b5050505050905090565b612cc3613d16565b73ffffffffffffffffffffffffffffffffffffffff168273ffffffffffffffffffffffffffffffffffffffff161415612d64576040517f08c379a00000000000000000000000000000000000000000000000000000000081526004018080602001828103825260198152602001807f4552433732313a20617070726f766520746f2063616c6c65720000000000000081525060200191505060405180910390fd5b8060056000612d71613d16565b73ffffffffffffffffffffffffffffffffffffffff1673ffffffffffffffffffffffffffffffffffffffff16815260200190815260200160002060008473ffffffffffffffffffffffffffffffffffffffff1673ffffffffffffffffffffffffffffffffffffffff16815260200190815260200160002060006101000a81548160ff0219169083151502179055508173ffffffffffffffffffffffffffffffffffffffff16612e1e613d16565b73ffffffffffffffffffffffffffffffffffffffff167f17307eab39ab6107e8899845ad3d59bd9653f200f220920489ca2b5937696c318360405180821515815260200191505060405180910390a35050565b600073ffffffffffffffffffffffffffffffffffffffff163373ffffffffffffffffffffffffffffffffffffffff161415612eab57600080fd5b612eb481613cf9565b612ebd57600080fd5b6000612ec8826129b5565b90503373ffffffffffffffffffffffffffffffffffffffff168173ffffffffffffffffffffffffffffffffffffffff1614612f0257600080fd5b6000601160008481526020019081526020016000206040518061016001604052908160008201548152602001600182018054600181600116156101000203166002900480601f016020809104026020016040519081016040528092919081815260200182805460018160011615610100020316600290048015612fc65780601f10612f9b57610100808354040283529160200191612fc6565b820191906000526020600020905b815481529060010190602001808311612fa957829003601f168201915b50505050508152602001600282018054600181600116156101000203166002900480601f0160208091040260200160405190810160405280929190818152602001828054600181600116156101000203166002900480156130685780601f1061303d57610100808354040283529160200191613068565b820191906000526020600020905b81548152906001019060200180831161304b57829003601f168201915b50505050508152602001600382018054600181600116156101000203166002900480601f01602080910402602001604051908101604052809291908181526020018280546001816001161561010002031660029004801561310a5780601f106130df5761010080835404028352916020019161310a565b820191906000526020600020905b8154815290600101906020018083116130ed57829003601f168201915b505050505081526020016004820160009054906101000a900473ffffffffffffffffffffffffffffffffffffffff1673ffffffffffffffffffffffffffffffffffffffff1673ffffffffffffffffffffffffffffffffffffffff1681526020016005820160009054906101000a900473ffffffffffffffffffffffffffffffffffffffff1673ffffffffffffffffffffffffffffffffffffffff1673ffffffffffffffffffffffffffffffffffffffff1681526020016006820160009054906101000a900473ffffffffffffffffffffffffffffffffffffffff1673ffffffffffffffffffffffffffffffffffffffff1673ffffffffffffffffffffffffffffffffffffffff16815260200160078201548152602001600882015481526020016009820160009054906101000a900460ff16151515158152602001600a82018054600181600116156101000203166002900480601f0160208091040260200160405190810160405280929190818152602001828054600181600116156101000203166002900480156132dd5780601f106132b2576101008083540402835291602001916132dd565b820191906000526020600020905b8154815290600101906020018083116132c057829003601f168201915b50505050508152505090508061012001511561330a5760008161012001901515908115158152505061331d565b6001816101200190151590811515815250505b8060116000858152602001908152602001600020600082015181600001556020820151816001019080519060200190613357929190614fc2565b506040820151816002019080519060200190613374929190614fc2565b506060820151816003019080519060200190613391929190614fc2565b5060808201518160040160006101000a81548173ffffffffffffffffffffffffffffffffffffffff021916908373ffffffffffffffffffffffffffffffffffffffff16021790555060a08201518160050160006101000a81548173ffffffffffffffffffffffffffffffffffffffff021916908373ffffffffffffffffffffffffffffffffffffffff16021790555060c08201518160060160006101000a81548173ffffffffffffffffffffffffffffffffffffffff021916908373ffffffffffffffffffffffffffffffffffffffff16021790555060e0820151816007015561010082015181600801556101208201518160090160006101000a81548160ff02191690831515021790555061014082015181600a0190805190602001906134ba929190614fc2565b50905050505050565b6012818051602081018201805184825260208301602085012081835280955050505050506000915054906101000a900460ff1681565b600080613505836129b5565b905080915050919050565b600f6020528060005260406000206000915054906101000a900473ffffffffffffffffffffffffffffffffffffffff1681565b61355461354e613d16565b8361406a565b6135a9576040517f08c379a0000000000000000000000000000000000000000000000000000000008152600401808060200182810382526031815260200180615cd46031913960400191505060405180910390fd5b6135b58484848461441b565b50505050565b6011602052806000526040600020600091509050806000015490806001018054600181600116156101000203166002900480601f01602080910402602001604051908101604052809291908181526020018280546001816001161561010002031660029004801561366d5780601f106136425761010080835404028352916020019161366d565b820191906000526020600020905b81548152906001019060200180831161365057829003601f168201915b505050505090806002018054600181600116156101000203166002900480601f01602080910402602001604051908101604052809291908181526020018280546001816001161561010002031660029004801561370b5780601f106136e05761010080835404028352916020019161370b565b820191906000526020600020905b8154815290600101906020018083116136ee57829003601f168201915b505050505090806003018054600181600116156101000203166002900480601f0160208091040260200160405190810160405280929190818152602001828054600181600116156101000203166002900480156137a95780601f1061377e576101008083540402835291602001916137a9565b820191906000526020600020905b81548152906001019060200180831161378c57829003601f168201915b5050505050908060040160009054906101000a900473ffffffffffffffffffffffffffffffffffffffff16908060050160009054906101000a900473ffffffffffffffffffffffffffffffffffffffff16908060060160009054906101000a900473ffffffffffffffffffffffffffffffffffffffff16908060070154908060080154908060090160009054906101000a900460ff169080600a018054600181600116156101000203166002900480601f0160208091040260200160405190810160405280929190818152602001828054600181600116156101000203166002900480156138d85780601f106138ad576101008083540402835291602001916138d8565b820191906000526020600020905b8154815290600101906020018083116138bb57829003601f168201915b505050505090508b565b60606138ed82613cf9565b613942576040517f08c379a000000000000000000000000000000000000000000000000000000000815260040180806020018281038252602f815260200180615c84602f913960400191505060405180910390fd5b6000600860008481526020019081526020016000208054600181600116156101000203166002900480601f0160208091040260200160405190810160405280929190818152602001828054600181600116156101000203166002900480156139eb5780601f106139c0576101008083540402835291602001916139eb565b820191906000526020600020905b8154815290600101906020018083116139ce57829003601f168201915b5050505050905060006139fc612a04565b9050600081511415613a12578192505050613bae565b600082511115613ae35780826040516020018083805190602001908083835b60208310613a545780518252602082019150602081019050602083039250613a31565b6001836020036101000a03801982511681845116808217855250505050505090500182805190602001908083835b60208310613aa55780518252602082019150602081019050602083039250613a82565b6001836020036101000a0380198251168184511680821785525050505050509050019250505060405160208183030381529060405292505050613bae565b80613aed8561448d565b6040516020018083805190602001908083835b60208310613b235780518252602082019150602081019050602083039250613b00565b6001836020036101000a03801982511681845116808217855250505050505090500182805190602001908083835b60208310613b745780518252602082019150602081019050602083039250613b51565b6001836020036101000a03801982511681845116808217855250505050505090500192505050604051602081830303815290604052925050505b919050565b600080613bbe611366565b90508091505090565b600a8054600181600116156101000203166002900480601f016020809104026020016040519081016040528092919081815260200182805460018160011615610100020316600290048015613c5d5780601f10613c3257610100808354040283529160200191613c5d565b820191906000526020600020905b815481529060010190602001808311613c4057829003601f168201915b505050505081565b6000600560008473ffffffffffffffffffffffffffffffffffffffff1673ffffffffffffffffffffffffffffffffffffffff16815260200190815260200160002060008373ffffffffffffffffffffffffffffffffffffffff1673ffffffffffffffffffffffffffffffffffffffff16815260200190815260200160002060009054906101000a900460ff16905092915050565b6000613d0f8260026145d490919063ffffffff16565b9050919050565b600033905090565b816004600083815260200190815260200160002060006101000a81548173ffffffffffffffffffffffffffffffffffffffff021916908373ffffffffffffffffffffffffffffffffffffffff160217905550808273ffffffffffffffffffffffffffffffffffffffff16613d91836129b5565b73ffffffffffffffffffffffffffffffffffffffff167f8c5be1e5ebec7d5bd14f71427d1e84f3dd0314c0f7b2291e5b200ac8c7c3b92560405160405180910390a45050565b600073ffffffffffffffffffffffffffffffffffffffff168273ffffffffffffffffffffffffffffffffffffffff161415613e7a576040517f08c379a00000000000000000000000000000000000000000000000000000000081526004018080602001828103825260208152602001807f4552433732313a206d696e7420746f20746865207a65726f206164647265737381525060200191505060405180910390fd5b613e8381613cf9565b15613ef6576040517f08c379a000000000000000000000000000000000000000000000000000000000815260040180806020018281038252601c8152602001807f4552433732313a20746f6b656e20616c7265616479206d696e7465640000000081525060200191505060405180910390fd5b613f02600083836145ee565b613f5381600160008573ffffffffffffffffffffffffffffffffffffffff1673ffffffffffffffffffffffffffffffffffffffff1681526020019081526020016000206145f390919063ffffffff16565b50613f6a8183600261460d9092919063ffffffff16565b50808273ffffffffffffffffffffffffffffffffffffffff16600073ffffffffffffffffffffffffffffffffffffffff167fddf252ad1be2c89b69c2b068fc378daa952ba7f163c4a11628f55a4df523b3ef60405160405180910390a45050565b613fd482613cf9565b614029576040517f08c379a000000000000000000000000000000000000000000000000000000000815260040180806020018281038252602c815260200180615c2f602c913960400191505060405180910390fd5b80600860008481526020019081526020016000209080519060200190614050929190614fc2565b505050565b600061406382600001614642565b9050919050565b600061407582613cf9565b6140ca576040517f08c379a000000000000000000000000000000000000000000000000000000000815260040180806020018281038252602c815260200180615b2a602c913960400191505060405180910390fd5b60006140d5836129b5565b90508073ffffffffffffffffffffffffffffffffffffffff168473ffffffffffffffffffffffffffffffffffffffff16148061414457508373ffffffffffffffffffffffffffffffffffffffff1661412c84610df4565b73ffffffffffffffffffffffffffffffffffffffff16145b8061415557506141548185613c65565b5b91505092915050565b8273ffffffffffffffffffffffffffffffffffffffff1661417e826129b5565b73ffffffffffffffffffffffffffffffffffffffff16146141ea576040517f08c379a0000000000000000000000000000000000000000000000000000000008152600401808060200182810382526029815260200180615c5b6029913960400191505060405180910390fd5b600073ffffffffffffffffffffffffffffffffffffffff168273ffffffffffffffffffffffffffffffffffffffff161415614270576040517f08c379a0000000000000000000000000000000000000000000000000000000008152600401808060200182810382526024815260200180615ae06024913960400191505060405180910390fd5b61427b8383836145ee565b614286600082613d1e565b6142d781600160008673ffffffffffffffffffffffffffffffffffffffff1673ffffffffffffffffffffffffffffffffffffffff16815260200190815260200160002061465390919063ffffffff16565b5061432981600160008573ffffffffffffffffffffffffffffffffffffffff1673ffffffffffffffffffffffffffffffffffffffff1681526020019081526020016000206145f390919063ffffffff16565b506143408183600261460d9092919063ffffffff16565b50808273ffffffffffffffffffffffffffffffffffffffff168473ffffffffffffffffffffffffffffffffffffffff167fddf252ad1be2c89b69c2b068fc378daa952ba7f163c4a11628f55a4df523b3ef60405160405180910390a4505050565b60006143b0836000018361466d565b60001c905092915050565b6000806000806143ce86600001866146f0565b915091508160001c8160001c9350935050509250929050565b60006143fa846000018460001b84614789565b60001c90509392505050565b60006144148260000161487f565b9050919050565b61442684848461415e565b61443284848484614890565b614487576040517f08c379a0000000000000000000000000000000000000000000000000000000008152600401808060200182810382526032815260200180615aae6032913960400191505060405180910390fd5b50505050565b606060008214156144d5576040518060400160405280600181526020017f300000000000000000000000000000000000000000000000000000000000000081525090506145cf565b600082905060005b600082146144ff578080600101915050600a82816144f757fe5b0491506144dd565b60008167ffffffffffffffff8111801561451857600080fd5b506040519080825280601f01601f19166020018201604052801561454b5781602001600182028036833780820191505090505b50905060006001830390508593505b600084146145c757600a848161456c57fe5b0660300160f81b8282806001900393508151811061458657fe5b60200101907effffffffffffffffffffffffffffffffffffffffffffffffffffffffffffff1916908160001a905350600a84816145bf57fe5b04935061455a565b819450505050505b919050565b60006145e6836000018360001b614aa9565b905092915050565b505050565b6000614605836000018360001b614acc565b905092915050565b6000614639846000018460001b8473ffffffffffffffffffffffffffffffffffffffff1660001b614b3c565b90509392505050565b600081600001805490509050919050565b6000614665836000018360001b614c18565b905092915050565b6000818360000180549050116146ce576040517f08c379a0000000000000000000000000000000000000000000000000000000008152600401808060200182810382526022815260200180615a8c6022913960400191505060405180910390fd5b8260000182815481106146dd57fe5b9060005260206000200154905092915050565b60008082846000018054905011614752576040517f08c379a0000000000000000000000000000000000000000000000000000000008152600401808060200182810382526022815260200180615be16022913960400191505060405180910390fd5b600084600001848154811061476357fe5b906000526020600020906002020190508060000154816001015492509250509250929050565b60008084600101600085815260200190815260200160002054905060008114158390614850576040517f08c379a00000000000000000000000000000000000000000000000000000000081526004018080602001828103825283818151815260200191508051906020019080838360005b838110156148155780820151818401526020810190506147fa565b50505050905090810190601f1680156148425780820380516001836020036101000a031916815260200191505b509250505060405180910390fd5b5084600001600182038154811061486357fe5b9060005260206000209060020201600101549150509392505050565b600081600001805490509050919050565b60006148b18473ffffffffffffffffffffffffffffffffffffffff16614d00565b6148be5760019050614aa1565b6000614a2863150b7a0260e01b6148d3613d16565b888787604051602401808573ffffffffffffffffffffffffffffffffffffffff1681526020018473ffffffffffffffffffffffffffffffffffffffff16815260200183815260200180602001828103825283818151815260200191508051906020019080838360005b8381101561495757808201518184015260208101905061493c565b50505050905090810190601f1680156149845780820380516001836020036101000a031916815260200191505b5095505050505050604051602081830303815290604052907bffffffffffffffffffffffffffffffffffffffffffffffffffffffff19166020820180517bffffffffffffffffffffffffffffffffffffffffffffffffffffffff8381831617835250505050604051806060016040528060328152602001615aae603291398773ffffffffffffffffffffffffffffffffffffffff16614d139092919063ffffffff16565b90506000818060200190516020811015614a4157600080fd5b8101908080519060200190929190505050905063150b7a0260e01b7bffffffffffffffffffffffffffffffffffffffffffffffffffffffff1916817bffffffffffffffffffffffffffffffffffffffffffffffffffffffff191614925050505b949350505050565b600080836001016000848152602001908152602001600020541415905092915050565b6000614ad88383614d2b565b614b31578260000182908060018154018082558091505060019003906000526020600020016000909190919091505582600001805490508360010160008481526020019081526020016000208190555060019050614b36565b600090505b92915050565b6000808460010160008581526020019081526020016000205490506000811415614be357846000016040518060400160405280868152602001858152509080600181540180825580915050600190039060005260206000209060020201600090919091909150600082015181600001556020820151816001015550508460000180549050856001016000868152602001908152602001600020819055506001915050614c11565b82856000016001830381548110614bf657fe5b90600052602060002090600202016001018190555060009150505b9392505050565b60008083600101600084815260200190815260200160002054905060008114614cf45760006001820390506000600186600001805490500390506000866000018281548110614c6357fe5b9060005260206000200154905080876000018481548110614c8057fe5b9060005260206000200181905550600183018760010160008381526020019081526020016000208190555086600001805480614cb857fe5b60019003818190600052602060002001600090559055866001016000878152602001908152602001600020600090556001945050505050614cfa565b60009150505b92915050565b600080823b905060008111915050919050565b6060614d228484600085614d4e565b90509392505050565b600080836001016000848152602001908152602001600020541415905092915050565b606082471015614da9576040517f08c379a0000000000000000000000000000000000000000000000000000000008152600401808060200182810382526026815260200180615b046026913960400191505060405180910390fd5b614db285614d00565b614e24576040517f08c379a000000000000000000000000000000000000000000000000000000000815260040180806020018281038252601d8152602001807f416464726573733a2063616c6c20746f206e6f6e2d636f6e747261637400000081525060200191505060405180910390fd5b6000808673ffffffffffffffffffffffffffffffffffffffff1685876040518082805190602001908083835b60208310614e735780518252602082019150602081019050602083039250614e50565b6001836020036101000a03801982511681845116808217855250505050505090500191505060006040518083038185875af1925050503d8060008114614ed5576040519150601f19603f3d011682016040523d82523d6000602084013e614eda565b606091505b5091509150614eea828286614ef6565b92505050949350505050565b60608315614f0657829050614fbb565b600083511115614f195782518084602001fd5b816040517f08c379a00000000000000000000000000000000000000000000000000000000081526004018080602001828103825283818151815260200191508051906020019080838360005b83811015614f80578082015181840152602081019050614f65565b50505050905090810190601f168015614fad5780820380516001836020036101000a031916815260200191505b509250505060405180910390fd5b9392505050565b828054600181600116156101000203166002900490600052602060002090601f016020900481019282614ff8576000855561503f565b82601f1061501157805160ff191683800117855561503f565b8280016001018555821561503f579182015b8281111561503e578251825591602001919060010190615023565b5b50905061504c9190615050565b5090565b5b80821115615069576000816000905550600101615051565b5090565b600061508061507b846158cd565b61589c565b90508281526020810184848401111561509857600080fd5b6150a38482856159da565b509392505050565b60006150be6150b9846158fd565b61589c565b9050828152602081018484840111156150d657600080fd5b6150e18482856159da565b509392505050565b6000813590506150f881615a2f565b92915050565b60008135905061510d81615a46565b92915050565b60008135905061512281615a5d565b92915050565b600082601f83011261513957600080fd5b813561514984826020860161506d565b91505092915050565b600082601f83011261516357600080fd5b81356151738482602086016150ab565b91505092915050565b60008135905061518b81615a74565b92915050565b6000602082840312156151a357600080fd5b60006151b1848285016150e9565b91505092915050565b600080604083850312156151cd57600080fd5b60006151db858286016150e9565b92505060206151ec858286016150e9565b9150509250929050565b60008060006060848603121561520b57600080fd5b6000615219868287016150e9565b935050602061522a868287016150e9565b925050604061523b8682870161517c565b9150509250925092565b6000806000806080858703121561525b57600080fd5b6000615269878288016150e9565b945050602061527a878288016150e9565b935050604061528b8782880161517c565b925050606085013567ffffffffffffffff8111156152a857600080fd5b6152b487828801615128565b91505092959194509250565b600080604083850312156152d357600080fd5b60006152e1858286016150e9565b92505060206152f2858286016150fe565b9150509250929050565b6000806040838503121561530f57600080fd5b600061531d858286016150e9565b925050602061532e8582860161517c565b9150509250929050565b60006020828403121561534a57600080fd5b600061535884828501615113565b91505092915050565b60006020828403121561537357600080fd5b600082013567ffffffffffffffff81111561538d57600080fd5b61539984828501615152565b91505092915050565b600080600080600080600060e0888a0312156153bd57600080fd5b600088013567ffffffffffffffff8111156153d757600080fd5b6153e38a828b01615152565b975050602088013567ffffffffffffffff81111561540057600080fd5b61540c8a828b01615152565b965050604088013567ffffffffffffffff81111561542957600080fd5b6154358a828b01615152565b955050606088013567ffffffffffffffff81111561545257600080fd5b61545e8a828b01615152565b945050608061546f8a828b016150e9565b93505060a088013567ffffffffffffffff81111561548c57600080fd5b6154988a828b01615152565b92505060c088013567ffffffffffffffff8111156154b557600080fd5b6154c18a828b01615152565b91505092959891949750929550565b600080600080600060a086880312156154e857600080fd5b600086013567ffffffffffffffff81111561550257600080fd5b61550e88828901615152565b955050602086013567ffffffffffffffff81111561552b57600080fd5b61553788828901615152565b94505060406155488882890161517c565b935050606086013567ffffffffffffffff81111561556557600080fd5b61557188828901615152565b925050608086013567ffffffffffffffff81111561558e57600080fd5b61559a88828901615152565b9150509295509295909350565b6000602082840312156155b957600080fd5b60006155c78482850161517c565b91505092915050565b600080604083850312156155e357600080fd5b60006155f18582860161517c565b92505060206156028582860161517c565b9150509250929050565b61561581615966565b82525050565b61562481615954565b82525050565b61563381615978565b82525050565b60006156448261592d565b61564e8185615938565b935061565e8185602086016159e9565b61566781615a1e565b840191505092915050565b600061567d8261592d565b6156878185615949565b93506156978185602086016159e9565b80840191505092915050565b6156ac816159d0565b82525050565b60006156be8284615672565b915081905092915050565b60006020820190506156de600083018461561b565b92915050565b60006020820190506156f9600083018461562a565b92915050565b600060208201905081810360008301526157198184615639565b905092915050565b600060e082019050818103600083015261573b818a615639565b9050818103602083015261574f8189615639565b905081810360408301526157638188615639565b905081810360608301526157778187615639565b9050615786608083018661561b565b81810360a08301526157988185615639565b905081810360c08301526157ac8184615639565b905098975050505050505050565b60006020820190506157cf60008301846156a3565b92915050565b6000610160820190506157eb600083018e6156a3565b81810360208301526157fd818d615639565b90508181036040830152615811818c615639565b90508181036060830152615825818b615639565b9050615834608083018a61560c565b61584160a083018961560c565b61584e60c083018861560c565b61585b60e08301876156a3565b6158696101008301866156a3565b61587761012083018561562a565b81810361014083015261588a8184615639565b90509c9b505050505050505050505050565b6000604051905081810181811067ffffffffffffffff821117156158c3576158c2615a1c565b5b8060405250919050565b600067ffffffffffffffff8211156158e8576158e7615a1c565b5b601f19601f8301169050602081019050919050565b600067ffffffffffffffff82111561591857615917615a1c565b5b601f19601f8301169050602081019050919050565b600081519050919050565b600082825260208201905092915050565b600081905092915050565b600061595f826159b0565b9050919050565b6000615971826159b0565b9050919050565b60008115159050919050565b60007fffffffff0000000000000000000000000000000000000000000000000000000082169050919050565b600073ffffffffffffffffffffffffffffffffffffffff82169050919050565b6000819050919050565b82818337600083830152505050565b60005b83811015615a075780820151818401526020810190506159ec565b83811115615a16576000848401525b50505050565bfe5b6000601f19601f8301169050919050565b615a3881615954565b8114615a4357600080fd5b50565b615a4f81615978565b8114615a5a57600080fd5b50565b615a6681615984565b8114615a7157600080fd5b50565b615a7d816159d0565b8114615a8857600080fd5b5056fe456e756d657261626c655365743a20696e646578206f7574206f6620626f756e64734552433732313a207472616e7366657220746f206e6f6e20455243373231526563656976657220696d706c656d656e7465724552433732313a207472616e7366657220746f20746865207a65726f2061646472657373416464726573733a20696e73756666696369656e742062616c616e636520666f722063616c6c4552433732313a206f70657261746f7220717565727920666f72206e6f6e6578697374656e7420746f6b656e4552433732313a20617070726f76652063616c6c6572206973206e6f74206f776e6572206e6f7220617070726f76656420666f7220616c6c4552433732313a2062616c616e636520717565727920666f7220746865207a65726f20616464726573734552433732313a206f776e657220717565727920666f72206e6f6e6578697374656e7420746f6b656e456e756d657261626c654d61703a20696e646578206f7574206f6620626f756e64734552433732313a20617070726f76656420717565727920666f72206e6f6e6578697374656e7420746f6b656e4552433732314d657461646174613a2055524920736574206f66206e6f6e6578697374656e7420746f6b656e4552433732313a207472616e73666572206f6620746f6b656e2074686174206973206e6f74206f776e4552433732314d657461646174613a2055524920717565727920666f72206e6f6e6578697374656e7420746f6b656e4552433732313a20617070726f76616c20746f2063757272656e74206f776e65724552433732313a207472616e736665722063616c6c6572206973206e6f74206f776e6572206e6f7220617070726f766564a2646970667358221220092680e876ec440246f18293d9f066ada8791844846f76ffe97e755f0ee8618f64736f6c63430007060033",
  "immutableReferences": {},
  "source": "// SPDX-License-Identifier: MIT\npragma solidity >=0.4.21 <0.8.0;\npragma abicoder v2;\n\n// import ERC721 iterface\nimport \"./ERC721.sol\";\n\n// NFT smart contract inherits ERC721 interface\ncontract Marketplace is ERC721 {\n\n  // this contract's token collection name\n  string public collectionName;\n\n  // this contract's token symbol\n  string public collectionNameSymbol;\n\n  // total number of NFT minted\n  uint256 public NFTCounter;\n\n  // total number of User Created\n  uint256 public UserCounter;\n\n  // define NFT struct\n  struct NFT {\n    uint256 tokenId;\n    string tokenName;\n    string tokenImage;\n    string tokenURI;\n    address payable mintedBy;\n    address payable currentOwner;\n    address payable previousOwner;\n    uint256 price;\n    uint256 numberOfTransfers;\n    bool forSale;\n    string mintTime;\n  }\n\n  struct UserProfile {\n    string bannerHash;\n    string imageHash;\n    string name;\n    string description;\n    address user;\n    string email;\n    string timeOfRegistry;\n  }\n\n  // map user addresses to their profile\n  mapping(address => UserProfile) public allProfiles;\n  mapping(uint256 => address) public allAddress;\n\n  // check whether profile isset or not\n  mapping(address => bool) public isProfileSet;\n  // map NFT's token id to NFT\n  mapping(uint256 => NFT) public allNFTs;\n\n  // check if token name exists\n  mapping(string => bool) public tokenNameExists;\n\n  // mapping(string => bool) public colorExists;\n   mapping(string => bool) public tokenImageExists;\n\n  // check if token URI exists\n  // mapping(string => bool) public tokenURIExists;\n\n  // initialize contract while deployment with contract's collection name and token\n  constructor() ERC721(\"NFT Collection\", \"NFT\") {\n    collectionName = name();\n    collectionNameSymbol = symbol();\n  }\n\n  // mint a new NFT\n  function mintNFT(string memory _name, string memory _tokenURI, uint256 _price, string memory _imageHash,string memory _mintTime) external {\n\n    // check if thic fucntion caller is not an zero address account\n    // require(msg.sender != address(0));\n\n    NFTCounter ++;\n    \n    \n    require(!_exists(NFTCounter));\n\n    // require(!tokenURIExists[_tokenURI]);\n\n    require(!tokenNameExists[_name]);\n\n    require(!tokenImageExists[_imageHash]);\n\n    // mint the token\n    _mint(msg.sender, NFTCounter);\n\n    _setTokenURI(NFTCounter, _tokenURI);\n\n    // tokenURIExists[_tokenURI] = true;\n\n    tokenImageExists[_imageHash] = true;\n\n    // make token name passed as exists\n    tokenNameExists[_name] = true;\n\n    // create a new NFT (struct) and pass in new values\n    NFT memory newNFT = NFT(\n      NFTCounter,\n      _name,\n      _imageHash,\n      _tokenURI,\n      msg.sender,\n      msg.sender,\n      address(0),\n      _price,\n      0,\n      false,\n      _mintTime\n    );\n    \n    // add the token id and it's nft to allNFT mapping\n    allNFTs[NFTCounter] = newNFT;\n  }\n\n  // get owner of the token\n  function getTokenOwner(uint256 _tokenId) public view returns(address) {\n    address _to = ownerOf(_tokenId);\n    return _to;\n  }\n\n  // get metadata of the token\n  function getTokenMetaData(uint _tokenId) public view returns(string memory) {\n    string memory tm = tokenURI(_tokenId);\n    return tm;\n  }\n\n  // get total number of tokens minted so far\n  function getNumberOfTokensMinted() public view returns(uint256) {\n    uint256 total = totalSupply();\n    return total;\n  }\n\n  // get total number of tokens owned by an address\n  // function getTotalNumberOfTokensOwnedByAnAddress(address _owner) public view returns(uint256) {\n  //   uint256 totalNumberOfTokensOwned = balanceOf(_owner);\n  //   return totalNumberOfTokensOwned;\n  // }\n\n  // check if the token already exists\n  // function getTokenExists(uint256 _tokenId) public view returns(bool) {\n  //   bool tokenExists = _exists(_tokenId);\n  //   return tokenExists;\n  // }\n\n  // by a token by passing in the token's id\n  function buyToken(uint256 _tokenId) public payable {\n    \n    // check if the function caller is not an zero account address\n    require(msg.sender != address(0));\n    \n    // check if the token id of the token being bought exists or not\n    require(_exists(_tokenId));\n    \n    // get the token's owner\n    address owner = ownerOf(_tokenId);\n    \n    // token's owner should not be an zero address account\n    require(owner != address(0));\n    \n    // the one who wants to buy the token should not be the token's owner\n    require(owner != msg.sender);\n    \n    // get that token from all NFT mapping and create a memory of it defined as (struct => NFT)\n    NFT memory nft = allNFTs[_tokenId];\n    \n    // price sent in to buy should be equal to or more than the token's price\n    require(msg.value >= nft.price);\n    \n    // token should be for sale\n    require(nft.forSale);\n    \n    // transfer the token from owner to the caller of the function (buyer)\n    _transfer(owner, msg.sender, _tokenId);\n    \n    // get owner of the token\n    address payable sendTo = nft.currentOwner;\n    \n    // send token's worth of ethers to the owner\n    sendTo.transfer(msg.value);\n    \n    // update the token's previous owner\n    nft.previousOwner = nft.currentOwner;\n    \n    // update the token's current owner\n    nft.currentOwner = msg.sender;\n    \n    // update the how many times this token was transfered\n    nft.numberOfTransfers += 1;\n\n    // toggle the forSale parameter of token\n    nft.forSale = false;\n    \n    // set and update that token in the mapping\n    allNFTs[_tokenId] = nft;\n  }\n\n  function changeTokenPrice(uint256 _tokenId, uint256 _newPrice) public {\n    \n    // require caller of the function is not an empty address\n    require(msg.sender != address(0));\n    \n    // require that token should exist\n    require(_exists(_tokenId));\n    \n    // get the token's owner\n    address owner = ownerOf(_tokenId);\n    \n    // check that token's owner should be equal to the caller of the function\n    require(owner == msg.sender);\n    \n    // get that token from allNFT mapping and create a memory of it defined as (struct => NFT)\n    NFT memory nft = allNFTs[_tokenId];\n    \n    // update token's price with new price\n    nft.price = _newPrice;\n    \n    // set and update that token in the mapping\n    allNFTs[_tokenId] = nft;\n  }\n\n  // switch between set for sale and set not for sale\n  function toggleForSale(uint256 _tokenId) public {\n    \n    // require caller of the function is not an empty address\n    require(msg.sender != address(0));\n    \n    // require that token should exist\n    require(_exists(_tokenId));\n    \n    // get the token's owner\n    address owner = ownerOf(_tokenId);\n    \n    // check that token's owner should be equal to the caller of the function\n    require(owner == msg.sender);\n    \n    // get that token from all NFT mapping and create a memory of it defined as (struct => NFT)\n    NFT memory nft = allNFTs[_tokenId];\n    \n    // if token's forSale is false make it true and vice versa\n    if(nft.forSale) { nft.forSale = false; } else {nft.forSale = true;}\n    \n    // set and update that token in the mapping\n    allNFTs[_tokenId] = nft;\n  }\n\n  function addUserProfile(string memory _bannerHash,string memory _imageHash, string memory _name,string memory _bio,address _user,string memory _email,string memory _timestamp) external {\n    // require caller of the function is not an empty address\n      require(msg.sender != address(0));\n      \n      UserCounter ++;\n      \n      UserProfile memory userprofile = allProfiles[_user];\n      \n      userprofile.bannerHash=_bannerHash;\n      userprofile.email=_email;\n      userprofile.imageHash=_imageHash;\n      userprofile.name=_name;\n      userprofile.description=_bio;\n      userprofile.user=_user;\n\n      // add the user's address and it's profile to all allProfiles mapping\n      if (!isProfileSet[_user]){\n        userprofile.timeOfRegistry = _timestamp;\n        allAddress[UserCounter] = _user;\n      }\n\n      allProfiles[_user] = userprofile;\n      isProfileSet[_user] = true;\n    }\n}",
  "sourcePath": "C:\\Users\\Harsh\\Blockchain\\DeepSpace-master\\src\\contracts\\Marketplace.sol",
  "compiler": {
    "name": "solc",
    "version": "0.7.6+commit.7338295f.Emscripten.clang"
  },
  "schemaVersion": "3.4.4",
  "updatedAt": "2022-07-16T19:58:00.272Z",
  "networkType": "ethereum",
  "devdoc": {
    "kind": "dev",
    "methods": {
      "approve(address,uint256)": {
        "details": "See {IERC721-approve}."
      },
      "balanceOf(address)": {
        "details": "See {IERC721-balanceOf}."
      },
      "baseURI()": {
        "details": "Returns the base URI set via {_setBaseURI}. This will be automatically added as a prefix in {tokenURI} to each token's URI, or to the token ID if no specific URI is set for that token ID."
      },
      "getApproved(uint256)": {
        "details": "See {IERC721-getApproved}."
      },
      "isApprovedForAll(address,address)": {
        "details": "See {IERC721-isApprovedForAll}."
      },
      "name()": {
        "details": "See {IERC721Metadata-name}."
      },
      "ownerOf(uint256)": {
        "details": "See {IERC721-ownerOf}."
      },
      "safeTransferFrom(address,address,uint256)": {
        "details": "See {IERC721-safeTransferFrom}."
      },
      "safeTransferFrom(address,address,uint256,bytes)": {
        "details": "See {IERC721-safeTransferFrom}."
      },
      "setApprovalForAll(address,bool)": {
        "details": "See {IERC721-setApprovalForAll}."
      },
      "supportsInterface(bytes4)": {
        "details": "See {IERC165-supportsInterface}. Time complexity O(1), guaranteed to always use less than 30 000 gas."
      },
      "symbol()": {
        "details": "See {IERC721Metadata-symbol}."
      },
      "tokenByIndex(uint256)": {
        "details": "See {IERC721Enumerable-tokenByIndex}."
      },
      "tokenOfOwnerByIndex(address,uint256)": {
        "details": "See {IERC721Enumerable-tokenOfOwnerByIndex}."
      },
      "tokenURI(uint256)": {
        "details": "See {IERC721Metadata-tokenURI}."
      },
      "totalSupply()": {
        "details": "See {IERC721Enumerable-totalSupply}."
      },
      "transferFrom(address,address,uint256)": {
        "details": "See {IERC721-transferFrom}."
      }
    },
    "version": 1
  },
  "userdoc": {
    "kind": "user",
    "methods": {},
    "version": 1
  }
}